:020000040800F2
:1000000000050020C1010008F91500089111000841
:10001000F5150008A9020008C51A00080000000034
:10002000000000000000000000000000B7160008FB
:10003000AD02000800000000B5160008B91600085F
:10004000DB010008DB010008DB010008DB01000820
:10005000DB010008DB010008DB010008DB01000810
:10006000DB010008DB010008DB010008DB01000800
:10007000DB010008DB010008DB010008DB010008F0
:10008000DB010008DB010008DB010008DB010008E0
:10009000DB010008DB010008DB010008DB010008D0
:1000A000DB010008DB010008DB010008DB010008C0
:1000B000DB010008DB010008DB010008DB010008B0
:1000C000DB010008DB010008DB010008DB010008A0
:1000D000DB010008DB010008DB010008DB01000890
:1000E000DB010008DB010008DB010008DB01000880
:1000F000DB010008DB010008DB010008DB01000870
:10010000DB010008DB010008DB010008DB0100085F
:10011000DB010008DB010008DB010008DB0100084F
:10012000DB010008DB010008DB010008DB0100083F
:10013000DB010008DB010008DB010008DB0100082F
:10014000DB010008DB010008DB010008DB0100081F
:10015000DB010008DB010008DB010008DB0100080F
:10016000DB010008DB010008DB010008DB010008FF
:10017000DB010008DB010008DB01000800000000D3
:10018000DB010008DB010008DB010008DB010008DF
:10019000DB010008DB010008DB010008DB010008CF
:1001A0000000000000000000DB010008DFF80CD0B8
:1001B00000F068F8004800470D1B0008000500200B
:1001C0000648804706480047FEE7FEE7FEE7FEE7F1
:1001D000FEE7FEE7FEE7FEE7FEE7FEE7A117000801
:1001E000AD0100082DE9F05F0546002092469B46D0
:1001F00088460646814640241BE02846414647463D
:10020000224600F02FF853465A46C01A914110D3A7
:1002100011461846224600F016F82D1A67EB010821
:100220004F4622460120002100F00DF817EB00098F
:100230004E41201EA4F10104DFDC484631462A4627
:100240004346BDE8F09F202A04DB203A00FA02F181
:10025000002070479140C2F1200320FA03F31943B4
:1002600090407047202A04DB203A21FA02F0002156
:10027000704721FA02F3D040C2F1200291400843B6
:1002800019467047064C074D06E0E06840F0010350
:1002900094E8070098471034AC42F6D3FFF78AFF82
:1002A000301C0008501C000800BFFEE7704700002B
:1002B00070B5044600F028F906462546681C10B1C2
:1002C00004480078054400BF00F01EF9801BA842D6
:1002D000FAD370BD08000020F8B502460B46002591
:1002E000002400200021E6E0012606FA01F51E6840
:1002F00006EA0504AC4273D15E68022E02D05E6845
:10030000122E13D1CF0802F1200656F827004E070F
:10031000F70E0F26BE40B0434F07FF0E1E69BE40CA
:100320003043CF0802F1200646F8270010684F003E
:100330000326BE40B0431E7906F003064F00BE40C0
:10034000304310605E68012E08D05E68022E05D032
:100350005E68112E02D05E68122E13D190684F0095
:100360000326BE40B0434F00DE68BE40304390607D
:10037000506801268E40B0431E79C6F300168E40A9
:1003800030435060D0684F000326BE40B0434F005A
:100390009E68BE403043D0605E6806F08056B6F17D
:1003A000805FA8D100BF00260096454E366846F40F
:1003B0008046434F3E603E46366806F480460096CF
:1003C00000BF00BF3F4E8F0856F827008E07370F3B
:1003D0000F26BE40B0433C4EB24202D100262EE072
:1003E00068E03A4EB24201D1012628E0384EB242CE
:1003F00001D1022623E0374EB24201D103261EE08E
:10040000354EB24201D1042619E0344EB24201D138
:10041000052614E0324EB24201D106260FE0314EDD
:10042000B24201D107260AE02F4EB24201D108267E
:1004300005E02E4EB24201D1092600E00A268F07C0
:100440003F0FBE4030431F4E8F0846F82700284E0E
:100450003068A0435E6806F48036B6F5803F00D170
:100460002043234E3060361D3068A0435E6806F49A
:100470000036B6F5003F00D120431D4E361D3060DA
:10048000361D3068A0435E6806F48016B6F5801FFE
:1004900000D12043164E08363060361D3068A04328
:1004A0005E6806F40016B6F5001F00D12043104E1A
:1004B0000C363060491C1029FFF416AFF8BD00005F
:1004C0004438024008380140000002400004024065
:1004D00000080240000C02400010024000140240DC
:1004E00000180240001C024000200240002402408C
:1004F000003C014042694A40426170470AB1816153
:1005000001E00B04836170470148006870470000F8
:1005100000000020034800680349097808440149A5
:1005200008607047000000200800002010B50D484A
:10053000006840F400700B4908600846006840F409
:10054000806008600846006840F4807008600320FE
:1005500000F09AF8002000F007F800F02BF80020D7
:1005600010BD0000003C024070B504460E48007803
:100570004FF47A71B1FBF0F00C490968B1FBF0F56A
:10058000284600F0ECFB08B1012070BD102C07D20A
:1005900000222146501E00F038F80548046001E0B2
:1005A0000120F2E70020F0E7080000200C00002006
:1005B0000400002010B5032000F066F80022114668
:1005C0006FF00B0000F021F8002211466FF00A00D6
:1005D00000F01BF8002211466FF0090000F015F83A
:1005E00000221146501F00F010F800221146101F83
:1005F00000F00BF800221146901E00F006F80022D1
:100600001146501E00F001F810BD2DE9F05F804644
:100610000D461646002700F0F1FF074639462A46E8
:10062000334601F00700C0F1070ABAF1040F02D9FE
:100630004FF0040A01E0C0F1070AD14600F1040AB4
:10064000BAF1070F02D24FF0000A01E0A0F1030A4D
:10065000D4464FF0010A0AFA09FAAAF1010A0AEA95
:10066000020A0AFA0CFA4FF0010B0BFA0CFBABF181
:10067000010B0BEA030B4AEA0B042146404600F04B
:10068000C5FFBDE8F09F000000BF00F00702064B69
:1006900019684FF6FF031940044B0B4343EA02214C
:1006A000014B196000BF70470CED00E00000FA0537
:1006B00070B504460D460CB9012070BD584800685D
:1006C00000F00F00A84209D255490D700846006895
:1006D00000F00F00A84201D00120EEE7207800F0E2
:1006E000020002281DD1207800F00400042805D162
:1006F0004C48006840F4E0504A490860207800F017
:100700000800082805D14748006840F46040454982
:1007100008604448006820F0F000A168084341499F
:100720000860207800F00100A8B36068012807D1B4
:100730003C4808380068C0F34040B8B90120BCE725
:100740006068022802D06068032807D1354808385D
:100750000068C0F3406048B90120AEE7314808386E
:100760000068C0F3400008B90120A6E72D480068E2
:1007700020F00300616808432A490860FFF7C4FEBF
:10078000064609E0FFF7C0FE801B41F2883188422F
:1007900002D9032091E707E02248006800F00C002E
:1007A0006168B0EB810FEDD11D48006800F00F00CB
:1007B000A84209D91A490D700846006800F00F00D8
:1007C000A84201D0012078E7207800F00400042836
:1007D00007D11448006820F4E050E168084311494B
:1007E0000860207800F00800082808D10D4800684B
:1007F00020F46040216940EAC1000A49086000F025
:100800001DF808490968C1F30311074A515CC84043
:10081000064908600020FFF7A7FE00204DE7000012
:10082000003C024008380240181C00080C00002060
:1008300001480068704700000C0000202DE9F047D7
:10084000002400250026A1462548006800F00C0081
:1008500020B1042805D008283AD105E0DFF88490BB
:1008600039E0DFF8849036E01D48001F006800F092
:100870003F041B48001F006800F4800078B11A484C
:100880001749091F0968C1F38811A0FB01700146CF
:10089000224600233846FFF7A5FC05460EE0114826
:1008A0000F49091F0968C1F38811A0FB01700146B7
:1008B000224600233846FFF795FC05460848001FEE
:1008C0000068C0F30140401C4600B5FBF6F902E0A9
:1008D000DFF8109000BF00BF4846BDE8F087000079
:1008E000083802400024F400001BB700F8B50446A5
:1008F0000CB90120F8BD207800F00100002874D068
:10090000F948006800F00C0004280DD0F648006893
:1009100000F00C00082813D1F348001F006800F411
:100920008000B0F5800F0BD1EF4808380068C0F3A5
:100930004040002859D06068002856D10120D9E7EE
:1009400000BF6068B0F5803F08D1E748083800680C
:1009500040F48030E449083908601EE06068B0F572
:10096000A02F0DD1E0480838006840F48020DE490F
:10097000083908600846006840F4803008600CE0E0
:10098000D9480838006820F48030D7490839086011
:100990000846006820F48020086000BF606890B1BD
:1009A000FFF7B2FD054606E0FFF7AEFD401B6428E9
:1009B00001D903209EE7CC4808380068C0F34040C6
:1009C0000028F1D011E0FFF79FFD054606E0FFF794
:1009D0009BFD401B642801D903208BE7C2480838DF
:1009E0000068C0F340400028F1D1207800F00200F8
:1009F00002285FD1BC48006800F00C0058B1BA482A
:100A0000006800F00C0008281CD1B748001F0068DF
:100A100000F48000B0B9B44808380068C0F3400062
:100A200020B1E068012801D0012063E7AE48083812
:100A3000006820F0F800216940EAC100AA4908399D
:100A4000086037E0E06800B30120A8490860FFF7BC
:100A50005BFD054606E0FFF757FD401B022801D964
:100A6000032047E7A04808380068C0F3400000288A
:100A7000F1D09D480838006820F0F800216940EA6C
:100A8000C10099490839086014E0002097490860BE
:100A9000FFF73AFD054606E0FFF736FD401B02284A
:100AA00001D9032026E7904808380068C0F34000C9
:100AB0000028F1D1207800F0080008282CD16069C6
:100AC000A8B101208A490860FFF71EFD054606E02F
:100AD000FFF71AFD401B022801D903200AE78248CC
:100AE0006C300068C0F340000028F1D014E0002012
:100AF0007F490860FFF708FD054606E0FFF704FDA3
:100B0000401B022801D90320F4E677486C300068C6
:100B1000C0F340000028F1D1207800F00400042840
:100B200070D1002670483830006800F0805090B9CD
:100B300000BF002000906C483830006840F08050C2
:100B40006949383108600846006800F0805000901C
:100B500000BF00BF01266748006800F48070B0B98C
:100B60006448006840F4807062490860FFF7CCFC7C
:100B7000054606E0FFF7C8FC401B022801D9032008
:100B8000B8E65C48006800F480700028F2D000BF2E
:100B9000A068012808D154486830006840F001007E
:100BA0005149683108601DE0A06805280DD14E4804
:100BB0006830006840F004004B496831086008461E
:100BC000006840F0010008600CE0474868300068A9
:100BD00020F001004449683108600846006820F0B0
:100BE0000400086000BFA068A8B1FFF78DFC0546AF
:100BF00009E0FFF789FC401B41F28831884202D9A5
:100C0000032077E626E0384868300068C0F34000EB
:100C10000028EED013E0FFF777FC054608E0FFF769
:100C200073FC401B41F28831884201D9032061E600
:100C30002D4868300068C0F340000028EFD1012E35
:100C400007D129483830006820F0805026493831D3
:100C5000086000BFA069B8B32348006800F00C002A
:100C600008285ED0A069022846D100201F490866E6
:100C7000FFF74AFC054606E0FFF746FC401B02284A
:100C800001D9032036E6184808380068C0F34060F0
:100C90000028F1D1D4E907010843616A40EA8111D3
:100CA0000122A06AC2EB500041EA00412C20005D05
:100CB00041EA00600C49091F086001200B490866E1
:100CC000FFF722FC054607E02DE0FFF71DFC401B67
:100CD000022801D903200DE6034808380068C0F354
:100CE00040600028F1D01EE0083802400000474272
:100CF000800E47420070004000200C490866FFF754
:100D000003FC054606E0FFF7FFFB401B022801D964
:100D10000320EFE506480068C0F340600028F2D1E8
:100D200001E00120E6E50020E4E500000000474284
:100D300000380240042808D14FF0E021096941F051
:100D400004014FF0E022116107E04FF0E021096952
:100D500021F004014FF0E02211617047704770B537
:100D600004462546681EB0F1807F01D301200FE0C4
:100D7000681E4FF0E02148610F214FF0FF3000F076
:100D800045FC00204FF0E021886107200861002029
:100D900070BD10B5FFF7E2FF10BD10B5034600228D
:100DA00000BF93F83800012801D1022010BD0120B6
:100DB00083F8380000BF22F0FF00CC6840EA04024C
:100DC00022F440708C6840EA040222F480604C688F
:100DD00040EA040222F400600C6840EA040222F4B3
:100DE00080500C6940EA040222F400504C6940EA49
:100DF000040222F480408C6940EA040222F400409C
:100E00008C6940EA04021868426400BF002083F83D
:100E1000380000BF00BFC9E7024600BF92F83800A3
:100E2000012801D102207047012082F8380000BF5C
:100E3000022082F839001068406820F070001368C2
:100E40005860106840680B68184313685860106851
:100E5000806820F0800013689860106880684B6894
:100E6000184313689860012082F8390000BF002001
:100E700082F8380000BF00BFD5E7000010B586B08B
:100E800004462068B0F1804F0DD10F200190022060
:100E900002900020039004900120059001A92548AC
:100EA000FFF71AFA43E02449206888420ED14FF434
:100EB00070400190022002900020039004900220D4
:100EC000059001A91D48FFF707FA30E01C4920688A
:100ED00088421BD101200190022002900020039043
:100EE00004900220059001A91648FFF7F5F94FF488
:100EF000E050019002200290002003900490022014
:100F0000059001A91048FFF7E7F910E00F492068A4
:100F100088420CD1E420019002200290002003902E
:100F200004900320059001A90648FFF7D5F906B003
:100F300010BD00000000024000080040000C02400C
:100F4000000C004000200240001C02400004014050
:100F500070B504460D46164600BF94F838000128C7
:100F600001D1022070BD012084F8380000BF0220AA
:100F700084F8390036B1042E1BD0082E31D00C2E47
:100F80005ED145E02946206800F0BCFC20688069FD
:100F900040F00800216888612068806920F0040022
:100FA000216888612068806929690843216888610F
:100FB00047E02946206800F0DDFC2068806940F4A5
:100FC0000060216888612068806920F48060216861
:100FD000886120688069296940EA01202168886168
:100FE0002FE02946206800F001FD2068C06940F02C
:100FF00008002168C8612068C06920F004002168E9
:10100000C8612068C069296908432168C86118E07F
:101010002946206800F026FD2068C06940F4006081
:101020002168C8612068C06920F480602168C861B7
:101030002068C069296940EA01202168C86100E090
:1010400000BF00BF012084F8390000BF002084F8F1
:10105000380000BF00BF85E710B504460CB9012079
:1010600010BD94F8390028B9002084F838002046D3
:1010700000F00CF8022084F83900211D206800F0EF
:10108000C1FB012084F839000020E9E708B50168B8
:10109000B1F1804F0FD100BF0021009125490968AF
:1010A00041F00101234A11601146096801F0010174
:1010B000009100BF3DE0204A016891420FD100BF7E
:1010C000002100911B49096841F00401194A11608F
:1010D0001146096801F00401009100BF29E0174A98
:1010E000016891420FD100BF0021009111490968A8
:1010F00041F008010F4A11601146096801F008012A
:10110000009100BF15E00E4A0168914211D100BF65
:10111000002100910749091D096841F00201054AB3
:10112000121D11601146096801F00201009100BF13
:1011300000BF08BD4038024000080040000C0040DD
:101140000004014030B504460D46012229462068BE
:1011500000F0CAFB0C492068884203D00B49206884
:10116000884201D1012000E0002028B12068406CB5
:1011700040F40040216848642068006840F00100A5
:1011800021680860002030BD0000014000040140DB
:1011900000BFFEE700B587B000BF002001903E48C9
:1011A000006840F480703C4908600846006800F41C
:1011B0008070019000BF00BF00BF00200190084672
:1011C000006840F0800008600846006800F0800079
:1011D000019000BF00BF00BF0020019008460068DA
:1011E00040F0080008600846006800F00800019020
:1011F00000BF00BF00BF002001900846006840F01B
:10120000010008600846006800F00100019000BF7E
:1012100000BF00BF002001900846006840F01000A9
:1012200008600846006800F01000019000BF00BF91
:1012300000BF002001900846006840F020000860D0
:101240000846006800F02000019000BF00BF0122A6
:10125000C9141248FFF752F9012291031048FFF711
:101260004DF94FF40060029001200390002004909B
:10127000059002A90948FFF72FF84FF4804002902B
:101280000120039000200490059002A90448FFF774
:1012900023F807B000BD00003038024000100240C3
:1012A0000014024000B589B04FF080402949086021
:1012B000A720486000212748816042F20F71C16079
:1012C00000210161FFF7C8FE18B1412122A000F002
:1012D000FBFB00200790089007A91E48FFF79CFD24
:1012E00018B148211CA000F0EFFB6020009041F2F3
:1012F0008830019000200290049000226946154831
:10130000FFF726FE18B1512113A000F0DDFB0422E7
:1013100069461048FFF71CFE18B156210EA000F0D8
:10132000D3FB082269460B48FFF712FE18B15B2178
:1013300009A000F0C9FB0C2269460648FFF708FE29
:1013400018B1602104A000F0BFFB0248FFF796FD32
:1013500009B000BD100000202E2E2F5372632F7491
:10136000696D2E630000000000B589B02A482B4942
:101370000860A720486000212848816042F20F7170
:10138000C16000210161FFF767FE18B1732124A03D
:1013900000F09AFB00200790089007A91F48FFF76C
:1013A0003BFD18B17A211EA000F08EFB602000905A
:1013B00041F288300190002002900490002269469A
:1013C0001648FFF7C5FD18B1832115A000F07CFB7E
:1013D000042269461148FFF7BBFD18B1882110A00F
:1013E00000F072FB082269460C48FFF7B1FD18B106
:1013F0008D210BA000F068FB0C2269460748FFF71F
:10140000A7FD18B1922106A000F05EFB0348FFF78C
:1014100035FD09B000BD0000000800404C00002070
:101420002E2E2F5372632F74696D2E6300000000FF
:1014300000B589B02A482B490860A72048600021E0
:101440002848816042F20F71C16000210161FFF7FD
:1014500003FE18B1A52124A000F036FB0020079060
:10146000089007A91F48FFF7D7FC18B1AC211EA0B0
:1014700000F02AFB6020009041F2883001900020AB
:1014800002900490002269461648FFF761FD18B1EA
:10149000B52115A000F018FB042269461148FFF79A
:1014A00057FD18B1BA2110A000F00EFB08226946C2
:1014B0000C48FFF74DFD18B1BF210BA000F004FB55
:1014C0000C2269460748FFF743FD18B1C42106A066
:1014D00000F0FAFA0348FFF7D1FC09B000BD0000A4
:1014E000000C0040880000202E2E2F5372632F74B2
:1014F000696D2E630000000000B591B0374838498F
:10150000086040F24F10486000213548816042F287
:101510000F71C160002101614161FFF79DFD18B1AC
:10152000D92130A000F0D0FA00200F9010900FA920
:101530002B48FFF771FC18B1E0212AA000F0C4FA93
:101540006020089041F28830099000200A900B90AA
:101550000C900D900E90002208A92148FFF7F8FC8E
:1015600018B1EC211FA000F0AFFA042208A91C4812
:10157000FFF7EEFC18B1F1211AA000F0A5FA08223D
:1015800008A91748FFF7E4FC18B1F62115A000F0F0
:101590009BFA0C2208A91248FFF7DAFC18B1FB21CC
:1015A00010A000F091FA00200190029003900490A6
:1015B00005904FF4005006900020079001A90848BC
:1015C000FFF7EBFB20B140F2071106A000F07CFA18
:1015D0000348FFF753FC11B000BD000000040140B8
:1015E000C40000202E2E2F5372632F74696D2E635A
:1015F0000000000000BFFEE77047000002480068DE
:10160000C0F30220704700000CED00E010B5002888
:1016100007DA0A07140E054A00F00F031B1FD45403
:1016200003E00A07130E024A135410BD18ED00E040
:1016300000E400E031B1042911D008291CD00C29A4
:1016400034D126E09FED1A1AF7EE000A51EE000A97
:10165000FCEEE00A10EE902A03685A6326E09FED44
:10166000141AF7EE000A51EE000AFCEEE00A10EE42
:10167000902A03689A6319E09FED0D1AF7EE000AAD
:1016800051EE000AFCEEE00A10EE902A0368DA63DD
:101690000CE09FED071AF7EE000A51EE000AFCEE8F
:1016A000E00A10EE902A03681A6400BF00BF70477A
:1016B00000401C467047704710B5FEF72BFFFFF740
:1016C00068FB10BD10B592B000BF002000902E48FE
:1016D000006840F080502C4908600846006800F01F
:1016E0008050009000BF00BF00BF0020009027483E
:1016F000006840F44040254908600846006800F44E
:101700004040009000BF00BF0120069000040790F9
:1017100002200C9041050D9106210E91A8210F91F8
:10172000022110910421119106A8FFF7DFF818B1EA
:10173000D22117A000F0C8F90F20019002200290DA
:10174000002003904FF4A05004904FF48050059077
:10175000052101A8FEF7ACFF18B1E0210CA000F0B4
:10176000B3F9FFF765F84FF47A71B0FBF1F4204656
:10177000FFF7F5FA0420FFF7DDFA00221146501EAC
:10178000FEF743FF12B010BD403802400070004029
:101790002E2E2F5372632F6D61696E2E6300000031
:1017A0001448006840F4700012490860124800684C
:1017B00040F001001049086000200F49083108601E
:1017C0000D4800680D4908400B4908600C48091D88
:1017D0000860081F006820F48020091F08600020AE
:1017E00005490C3108604FF00060024980390860FB
:1017F0007047000088ED00E000380240FFFFF6FE71
:1018000010300024002202682C4B98420ED0B0F118
:10181000804F0BD02A4B984208D02A4B984205D0D3
:10182000294B984202D0294B984201D1012300E074
:1018300000231BB122F070024B681A431F4B9842E1
:1018400020D0B0F1804F1DD01D4B98421AD01D4BB7
:10185000984217D01C4B984214D01C4B984211D080
:101860001B4B98420ED01B4B98420BD01A4B984200
:1018700008D01A4B984205D0194B984202D0194B08
:10188000984201D1012300E000231BB122F44072F1
:10189000CB681A4302608B68C3620B688362074B94
:1018A000984202D0094B984201D1012300E0002365
:1018B0000BB10B69036301234361704700000140D2
:1018C0000004004000080040000C004000040140FB
:1018D0000040014000440140004801400018004021
:1018E000001C00400020004030B50023012404FA11
:1018F00001F3046A9C430462046A02FA01F52C4372
:10190000046230BD30B5002400220023056A25F0B2
:1019100001050562026A4368846924F0700424F0BA
:1019200003040D682C4322F002028D682A430F4DF8
:10193000A84202D00E4DA84201D1012500E00025A9
:101940006DB122F00802CD682A4322F0040223F48C
:10195000807323F400734D692B438D692B434360DF
:1019600084614D684563026230BD000000000140A3
:101970000004014030B5002400220023056A25F050
:1019800010050562026A4368846924F4E04424F483
:1019900040740D6844EA052422F020028D6842EA72
:1019A0000512104DA84202D00F4DA84201D10125C9
:1019B00000E0002585B122F08002CD6842EA0512E0
:1019C00022F0400223F4806323F400634D6943EA6C
:1019D00085038D6943EA8503436084614D688563AF
:1019E000026230BD000001400004014030B5002417
:1019F00000220023056A25F480750562026A4368A7
:101A0000C46924F0700424F003040D682C4322F40C
:101A100000728D6842EA0522104DA84202D0104D96
:101A2000A84201D1012500E0002585B122F4006221
:101A3000CD6842EA052222F4806223F4805323F425
:101A400000534D6943EA05138D6943EA051343606A
:101A5000C4614D68C563026230BD000000000140F2
:101A60000004014030B5002200230024056A25F45B
:101A700080550562036A4468C26922F4E04222F498
:101A800040720D6842EA052223F400538D6843EA50
:101A900005330A4DA84202D0094DA84201D10125C3
:101AA00000E0002525B124F480444D6944EA851402
:101AB0004460C2614D680564036230BD00000140AE
:101AC0000004014000BFFEE700BFFEE702E008C8D7
:101AD000121F08C1002AFAD170477047002001E0A8
:101AE00001C1121F002AFBD17047000010B501226E
:101AF000D1020448FEF702FD012291030248FEF7DD
:101B0000FDFC10BD0010024000140240FEF70EFD67
:101B1000FFF7D8FDFFF73EFBFFF7C4FBFFF724FC00
:101B2000FFF786FCFFF7E8FCFFF7E0FF00213148F4
:101B3000FFF708FB04212F48FFF704FB08212D487D
:101B4000FFF700FB0C212B48FFF7FCFA00212A4885
:101B5000FFF7F8FA04212848FFF7F4FA082126488D
:101B6000FFF7F0FA0C212448FFF7ECFA0021234894
:101B7000FFF7E8FA04212148FFF7E4FA08211F489B
:101B8000FFF7E0FA0C211D48FFF7DCFA00211C48A2
:101B9000FFF7D8FA04211A48FFF7D4FA08211848A9
:101BA000FFF7D0FA0C211648FFF7CCFA9FED150A83
:101BB00000211348FFF73EFD9FED130A0421104852
:101BC000FFF738FD9FED110A08210D48FFF732FDA0
:101BD0009FED0F0A0C210A48FFF72CFD08E04FF497
:101BE00080410C48FEF786FC4FF4FA70FEF760FB6C
:101BF000F5E70000100000204C00002088000020C5
:101C0000C4000020CDCCCC3DCDCC4C3E9A99993E21
:101C1000CDCCCC3E001402400000000000000000CB
:101C20000102030406070809000000000102030482
:101C3000501C00080000002010000000CC1A000812
:101C4000601C000810000020F0040000DC1A0008EE
:101C50000000000010000000010000000024F4005B
:04000005080001AD41
:00000001FF
