:020000040800F2
:1000000010050020C1010008C5160008B51200083F
:10001000C1160008CD020008211B000800000000E6
:100020000000000000000000000000004B17000866
:10003000D102000800000000491700084D17000811
:10004000DB010008DB010008DB010008DB01000820
:10005000DB010008DB010008DB010008DB01000810
:10006000DB010008DB010008DB010008DB01000800
:10007000DB010008DB010008DB010008DB010008F0
:10008000DB010008DB010008DB010008DB010008E0
:10009000DB010008DB010008DB010008DB010008D0
:1000A000DB010008DB010008DB010008DB010008C0
:1000B000DB010008DB010008DB010008DB010008B0
:1000C000DB010008DB010008DB010008DB010008A0
:1000D000DB010008DB010008DB010008DB01000890
:1000E000DB010008DB010008DB010008DB01000880
:1000F000DB010008DB010008DB010008DB01000870
:10010000DB010008DB010008DB010008DB0100085F
:10011000DB010008DB010008DB010008DB0100084F
:10012000DB010008DB010008DB010008DB0100083F
:10013000DB010008DB010008DB010008DB0100082F
:10014000DB010008DB010008DB010008DB0100081F
:10015000DB010008DB010008DB010008DB0100080F
:10016000DB010008DB010008DB010008DB010008FF
:10017000DB010008DB010008DB01000800000000D3
:10018000DB010008DB010008DB010008DB010008DF
:10019000DB010008DB010008DB010008DB010008CF
:1001A0000000000000000000DB010008DFF80CD0B8
:1001B00000F07AF8004800479D1B00081005002059
:1001C0000648804706480047FEE7FEE7FEE7FEE7F1
:1001D000FEE7FEE7FEE7FEE7FEE7FEE70918000898
:1001E000AD0100082DE9F05F0546002092469B46D0
:1001F00088460646814640241BE02846414647463D
:10020000224600F041F853465A46C01A914110D395
:1002100011461846224600F028F82D1A67EB01080F
:100220004F4622460120002100F01FF817EB00097D
:100230004E41201EA4F10104DFDC484631462A4627
:100240004346BDE8F09FD2B201E000F8012B491E01
:10025000FBD270470022F6E710B513460A46044663
:100260001946FFF7F0FF204610BD202A04DB203A94
:1002700000FA02F1002070479140C2F1200320FAF9
:1002800003F3194390407047202A04DB203A21FAF7
:1002900002F00021704721FA02F3D040C2F120029F
:1002A0009140084319467047064C074D06E0E06848
:1002B00040F0010394E8070098471034AC42F6D3AD
:1002C000FFF778FFC01C0008E01C000800BFFEE735
:1002D000704700BFFEE7000070B5044600F02EF93D
:1002E00006462546681C10B104480078054400BF46
:1002F00000F024F9801BA842FAD370BD080000204A
:10030000F8B502460B460025002400200021E6E057
:10031000012606FA01F51E6806EA0504AC4273D10F
:100320005E68012E08D05E68022E05D05E68112E30
:1003300002D05E68122E13D190684F000326BE4093
:10034000B0434F00DE68BE403043906050680126E5
:100350008E40B0431E79C6F300168E403043506085
:10036000D0684F000326BE40B0434F009E68BE4099
:100370003043D0605E68022E02D05E68122E13D128
:10038000CF0802F1200656F827004E07F70E0F2679
:10039000BE40B0434F07FF0E1E69BE403043CF083A
:1003A00002F1200646F8270010684F000326BE40E1
:1003B000B0431E7906F003064F00BE403043106084
:1003C0005E6806F08056B6F1805FA8D100BF0026B7
:1003D0000096454E366846F48046434F3E603E46A2
:1003E000366806F48046009600BF00BF3F4E8F0877
:1003F00056F827008E07370F0F26BE40B0433C4EFD
:10040000B24202D100262EE068E03A4EB24201D15B
:10041000012628E0384EB24201D1022623E0374EB1
:10042000B24201D103261EE0354EB24201D104266C
:1004300019E0344EB24201D1052614E0324EB242E8
:1004400001D106260FE0314EB24201D107260AE063
:100450002F4EB24201D1082605E02E4EB24201D104
:10046000092600E00A268F073F0FBE4030431F4E8B
:100470008F0846F82700284E3068A0435E6806F4CF
:100480008036B6F5803F00D12043234E3060361DC4
:100490003068A0435E6806F40036B6F5003F00D130
:1004A00020431D4E361D3060361D3068A0435E6807
:1004B00006F48016B6F5801F00D12043164E08368C
:1004C0003060361D3068A0435E6806F40016B6F54D
:1004D000001F00D12043104E0C363060491C1029FB
:1004E000FFF416AFF8BD0000443802400838014060
:1004F000000002400004024000080240000C0240DC
:10050000001002400014024000180240001C02408B
:100510000020024000240240003C014042690A40A1
:100520008A4202D10A04826100E0816170470AB107
:10053000816101E00B04836170470000014800689D
:100540007047000000000020034800680349097854
:10055000084401490860704700000020080000209E
:1005600010B50D48006840F400700B49086008465B
:10057000006840F4806008600846006840F48070BD
:100580000860032000F092F8002000F007F800F067
:100590002BF8002010BD0000003C024070B504465E
:1005A0000E4800784FF47A71B1FBF0F00C490968FD
:1005B000B1FBF0F5284600F0EBFB08B1012070BD5F
:1005C000102C07D200222146501E00F031F80548B9
:1005D000046001E00120F2E70020F0E708000020BD
:1005E0000C0000200400002008B500BF002000908F
:1005F0000E48006840F480400C49086008460068D6
:1006000000F48040009000BF00BF00BF00200090B9
:10061000081F006840F08050091F08600846006805
:1006200000F08050009000BF00BF08BD4438024079
:100630002DE9F05F80460D461646002701F072FA5C
:10064000074639462A46334601F00700C0F1070A3B
:10065000BAF1040F02D94FF0040A01E0C0F1070A11
:10066000D14600F1040ABAF1070F02D24FF0000A96
:1006700001E0A0F1030AD4464FF0010A0AFA09FA90
:10068000AAF1010A0AEA020A0AFA0CFA4FF0010B6F
:100690000BFA0CFBABF1010B0BEA030B4AEA0B0460
:1006A0002146404601F046FABDE8F09F00BF00F049
:1006B0000702064B19684FF6FF031940044B0B4322
:1006C00043EA0221014B196000BF70470CED00E0C6
:1006D0000000FA0570B504460D460CB9012070BD46
:1006E0005848006800F00F00A84209D255490D7023
:1006F0000846006800F00F00A84201D00120EEE794
:10070000207800F0020002281DD1207800F00400BB
:10071000042805D14C48006840F4E0504A4908607C
:10072000207800F00800082805D14748006840F408
:100730006040454908604448006820F0F000A16826
:10074000084341490860207800F00100A8B36068C0
:10075000012807D13C4808380068C0F34040B8B9C8
:100760000120BCE76068022802D06068032807D136
:10077000354808380068C0F3406048B90120AEE74A
:10078000314808380068C0F3400008B90120A6E7E6
:100790002D48006820F00300616808432A4908607A
:1007A000FFF7CCFE064609E0FFF7C8FE801B41F2CA
:1007B0008831884202D9032091E707E02248006887
:1007C00000F00C006168B0EB810FEDD11D480068AE
:1007D00000F00F00A84209D91A490D7008460068B8
:1007E00000F00F00A84201D0012078E7207800F047
:1007F0000400042807D11448006820F4E050E168A0
:10080000084311490860207800F00800082808D142
:100810000D48006820F46040216940EAC1000A499F
:10082000086000F019F808490968C1F30311074A84
:10083000515CC8400649086006480068FFF7AEFEF4
:1008400000204CE7003C024008380240A81C000889
:100850000C000020040000202DE9F04700240025B2
:100860000026A1462548006800F00C0020B10428AD
:1008700005D008283AD105E0DFF8849039E0DFF8A8
:10088000849036E01D48001F006800F03F041B48BC
:10089000001F006800F4800078B11A481749091F4A
:1008A0000968C1F38811A0FB0170014622460023AC
:1008B0003846FFF797FC05460EE011480F49091F1F
:1008C0000968C1F38811A0FB01700146224600238C
:1008D0003846FFF787FC05460848001F0068C0F34C
:1008E0000140401C4600B5FBF6F902E0DFF810902D
:1008F00000BF00BF4846BDE8F0870000083802404E
:100900000024F400001BB700F8B504460CB9012020
:10091000F8BD207800F00100002874D0F948006884
:1009200000F00C0004280DD0F648006800F00C0020
:10093000082813D1F348001F006800F48000B0F5C8
:10094000800F0BD1EF4808380068C0F34040002802
:1009500059D06068002856D10120D9E700BF6068EF
:10096000B0F5803F08D1E7480838006840F480308F
:10097000E449083908601EE06068B0F5A02F0DD189
:10098000E0480838006840F48020DE4908390860F3
:100990000846006840F4803008600CE0D948083808
:1009A000006820F48030D74908390860084600689C
:1009B00020F48020086000BF606890B1FFF7BEFDA2
:1009C000054606E0FFF7BAFD401B642801D9032065
:1009D0009EE7CC4808380068C0F340400028F1D0BA
:1009E00011E0FFF7ABFD054606E0FFF7A7FD401B52
:1009F000642801D903208BE7C24808380068C0F397
:100A000040400028F1D1207800F0020002285FD198
:100A1000BC48006800F00C0058B1BA48006800F00B
:100A20000C0008281CD1B748001F006800F48000A3
:100A3000B0B9B44808380068C0F3400020B1E0689D
:100A4000012801D0012063E7AE480838006820F093
:100A5000F800216940EAC100AA490839086037E076
:100A6000E06800B30120A8490860FFF767FD05466C
:100A700006E0FFF763FD401B022801D9032047E78A
:100A8000A04808380068C0F340000028F1D09D4815
:100A90000838006820F0F800216940EAC10099494F
:100AA0000839086014E0002097490860FFF746FD08
:100AB000054606E0FFF742FD401B022801D903204E
:100AC00026E7904808380068C0F340000028F1D1BC
:100AD000207800F0080008282CD16069A8B1012016
:100AE0008A490860FFF72AFD054606E0FFF726FD64
:100AF000401B022801D903200AE782486C300068B5
:100B0000C0F340000028F1D014E000207F490860C5
:100B1000FFF714FD054606E0FFF710FD401B022815
:100B200001D90320F4E677486C300068C0F3400038
:100B30000028F1D1207800F00400042870D10027AB
:100B400070483830006800F0805090B900BF002035
:100B500000906C483830006840F080506949383166
:100B600008600846006800F08050009000BF00BF99
:100B700001276748006800F48070B0B964480068D5
:100B800040F4807062490860FFF7D8FC054606E033
:100B9000FFF7D4FC401B022801D90320B8E65C48CB
:100BA000006800F480700028F2D000BFA06801281F
:100BB00008D154486830006840F00100514968315C
:100BC00008601DE0A06805280DD14E486830006817
:100BD00040F004004B49683108600846006840F066
:100BE000010008600CE047486830006820F0010010
:100BF0004449683108600846006820F00400086035
:100C000000BFA068A8B1FFF799FC054609E0FFF70F
:100C100095FC401B41F28831884202D9032077E6D7
:100C200026E0384868300068C0F340000028EED065
:100C300013E0FFF783FC054608E0FFF77FFC401B4D
:100C400041F28831884201D9032061E62D4868309D
:100C50000068C0F340000028EFD1012F07D12948D8
:100C60003830006820F0805026493831086000BFD5
:100C7000A069002845D02348006800F00C0008282F
:100C80005DD0A069022845D100201F490866FFF702
:100C900055FC054606E0FFF751FC401B022801D930
:100CA000032035E6174808380068C0F34060002884
:100CB000F1D1D4E907010843616A40EA81110122B8
:100CC000A06AC2EB500041EA00412C20005D41EADD
:100CD00000600C49091F086001200B490866FFF7F6
:100CE0002DFC054606E0FFF729FC401B022801D930
:100CF00003200DE6034808380068C0F34060002870
:100D0000F1D03FE00838024000004742800E4742E1
:100D10000070004000201C490866FFF70FFC0546E4
:100D200006E0FFF70BFC401B022801D90320EFE58A
:100D300016480068C0F340600028F2D122E0A069A4
:100D4000012800D1E4E511480830066806F4800166
:100D5000E069814214D106F03F01206A81420FD13F
:100D600047F6C0703040616A884209D106F44031CC
:100D7000A06A814204D106F07061E06A814201D02C
:100D80000120C5E50020C3E50000474200380240CD
:100D900070B504462546681EB0F1807F01D301205E
:100DA0000FE0681E4FF0E02148610F214FF0FF3047
:100DB00000F0C0FE00204FF0E021886107200861AC
:100DC000002070BD10B50346002200BF93F83C0020
:100DD000012801D1022010BD012083F83C0000BF92
:100DE00022F0FF00CC6840EA040222F440708C68D4
:100DF00040EA040222F480604C6840EA040222F4D3
:100E000000600C6840EA040222F480500C6940EA59
:100E1000040222F400504C6940EA040222F48040AB
:100E2000CC6940EA04021868426400BF002083F8DD
:100E30003C0000BF00BFCEE730B502460B4600BF06
:100E400092F83C00012801D1022030BD012082F837
:100E50003C0000BF022082F83D0010684468106822
:100E6000816824F070041868044310684460184DC9
:100E70001068A8421BD01068B0F1804F17D0154DF4
:100E80001068A84213D0144D1068A8420FD0134D1B
:100E90001068A8420BD0124D1068A84207D0114D1F
:100EA0001068A84203D0104D1068A84205D121F067
:100EB00080015868014310688160012082F83D007C
:100EC00000BF002082F83C0000BF00BFBDE700006B
:100ED000000001400004004000080040000C0040F9
:100EE00000040140004001400018004010B586B0E9
:100EF0000446142101A8FFF7ADF92068B0F1804F36
:100F00001DD100BF002000904F48006840F0010054
:100F10004D4908600846006800F00100009000BFDD
:100F200000BF0F2001900220029000200390049047
:100F30000120059001A94548FFF7E2F982E0444904
:100F4000206888421ED100BF002000903E48006803
:100F500040F008003C4908600846006800F00800BE
:100F6000009000BF00BF4FF470400190022002903B
:100F70000020039004900220059001A93548FFF756
:100F8000BFF95FE03449206888423AD100BF0020B1
:100F900000902D48006840F480702B490860084696
:100FA000006800F48070009000BF00BF00BF002008
:100FB00000900846006840F080000860084600681D
:100FC00000F08000009000BF00BF012001900220CF
:100FD00002900020039004900220059001A91F4870
:100FE000FFF78EF94FF4E0500190022002900020AC
:100FF000039004900220059001A91948FFF780F999
:1010000020E01849206888421CD100BF00200090D1
:101010000D48006840F480700B490860084600687D
:1010200000F48070009000BF00BFE4200190022017
:1010300002900020039004900320059001A9074826
:10104000FFF75EF906B010BD3038024000000240E4
:1010500000080040000C0240000C0040002002404C
:10106000001C02400004014070B504460D461646BF
:1010700000BF94F83C00012801D1022070BD01207E
:1010800084F83C0000BF022084F83D0036B1042EF5
:101090001BD0082E31D00C2E5ED145E029462068A9
:1010A00000F062FC2068806940F0080021688861D7
:1010B0002068806920F004002168886120688069C8
:1010C000296908432168886147E02946206800F0C3
:1010D00083FC2068806940F4006021688861206892
:1010E000806920F4806021688861206880692969AE
:1010F00040EA0120216888612FE02946206800F03D
:10110000A9FC2068C06940F008002168C861206817
:10111000C06920F004002168C8612068C06929699D
:1011200008432168C86118E02946206800F0CEFC19
:101130002068C06940F400602168C8612068C06907
:1011400020F480602168C8612068C069296940EA8C
:1011500001202168C86100E000BF00BF012084F8C1
:101160003D0000BF002084F83C0000BF00BF85E7C1
:1011700010B504460CB9012010BD94F83D0028B903
:10118000002084F83C00204600F00CF8022084F88F
:101190003D00211D206800F069FB012084F83D001E
:1011A0000020E9E708B50168B1F1804F0FD100BF19
:1011B000002100912549096841F00101234A11608D
:1011C0001146096801F00101009100BF3DE0204A8D
:1011D000016891420FD100BF002100911B490968AD
:1011E00041F00401194A11601146096801F0040137
:1011F000009100BF29E0174A016891420FD100BF5A
:10120000002100911149096841F008010F4A11605D
:101210001146096801F00801009100BF15E00E4A6F
:101220000168914211D100BF002100910749091DB9
:10123000096841F00201054A121D11601146096852
:1012400001F00201009100BF00BF08BD403802401C
:1012500000080040000C00400004014070B5044646
:101260000E4601223146206800F06CFB0F492068D1
:10127000884203D00E492068884201D1012000E055
:10128000002028B12068406C40F400402168486488
:101290002068806800F00705062D05D020680068EA
:1012A00040F0010021680860002070BD000001408E
:1012B0000004014000BFFEE700B587B0142102A87A
:1012C000FEF7C8FF00BF002001903E48006840F4D0
:1012D00080703C4908600846006800F48070019006
:1012E00000BF00BF00BF002001900846006840F02A
:1012F000800008600846006800F08000019000BF90
:1013000000BF00BF002001900846006840F00800C0
:1013100008600846006800F00800019000BF00BFA8
:1013200000BF002001900846006840F001000860FE
:101330000846006800F00100019000BF00BF00BF38
:10134000002001900846006840F010000860084640
:10135000006800F01000019000BF00BF00BF002037
:1013600001900846006840F02000086008460068C8
:1013700000F02000019000BF00BF0022C9141248F5
:10138000FFF7D5F800224FF480411048FFF7CFF85F
:101390004FF400600290012003900020049005901B
:1013A00002A90948FEF7ACFF4FF4804002900120EB
:1013B000039000200490059002A90448FEF7A0FFC6
:1013C00007B000BD30380240001002400014024057
:1013D00000B589B00020079008901C216846FEF7F0
:1013E00039FF4FF0804024490860A7204860002161
:1013F0002148816042F20F71C16000210161816169
:10140000FFF7B6FE08B1FEF764FF002007900890D2
:1014100007A91948FFF710FD08B1FEF75AFF602031
:10142000009041F288300190002002900490002248
:1014300069461148FFF718FE08B1FEF74AFF04227B
:1014400069460D48FFF710FE08B1FEF742FF08227B
:1014500069460948FFF708FE08B1FEF73AFF0C227B
:1014600069460548FFF700FE08B1FEF732FF024863
:10147000FFF73CFD09B000BD1000002000B589B0A9
:101480000020079008901C216846FEF7E3FE2548DF
:1014900025490860A720486000212348816042F266
:1014A0000F71C160002101618161FFF761FE08B128
:1014B000FEF70FFF00200790089007A91A48FFF7D2
:1014C000BBFC08B1FEF705FF6020009041F28830B8
:1014D0000190002002900490002269461248FFF714
:1014E000C3FD08B1FEF7F5FE042269460E48FFF77A
:1014F000BBFD08B1FEF7EDFE082269460A48FFF77A
:10150000B3FD08B1FEF7E5FE0C2269460648FFF779
:10151000ABFD08B1FEF7DDFE0348FFF7E7FC09B0BD
:1015200000BD0000000800405000002000B589B058
:101530000020079008901C216846FEF78BFE254886
:1015400025490860A720486000212348816042F2B5
:101550000F71C160002101618161FFF709FE08B1CF
:10156000FEF7B7FE00200790089007A91A48FFF77A
:1015700063FC08B1FEF7ADFE6020009041F28830B8
:101580000190002002900490002269461248FFF763
:101590006BFD08B1FEF79DFE042269460E48FFF779
:1015A00063FD08B1FEF795FE082269460A48FFF779
:1015B0005BFD08B1FEF78DFE0C2269460648FFF779
:1015C00053FD08B1FEF785FE0348FFF78FFC09B015
:1015D00000BD0000000C00409000002000B591B05C
:1015E00000200F9010901C2108A8FEF733FE202148
:1015F0006846FEF72FFE30483049086040F24F1031
:10160000486000212D48816042F20F71C1600021C5
:10161000016141618161FFF7ABFD08B1FEF759FE41
:1016200000200F9010900FA92448FFF705FC08B187
:10163000FEF74FFE6020089041F2883009900020AC
:101640000A900B900C900D900E90002208A91B4858
:10165000FFF70AFD08B1FEF73CFE042208A917486F
:10166000FFF702FD08B1FEF734FE082208A913486F
:10167000FFF7FAFC08B1FEF72CFE0C2208A90F4870
:10168000FFF7F2FC08B1FEF724FE00200090019065
:101690000290039004904FF40050059000200790B2
:1016A00069460648FFF78EFB08B1FEF712FE0348B5
:1016B000FFF71CFC11B000BD00040140D000002069
:1016C00000BFFEE77047000031B1042911D008299E
:1016D0001CD00C2934D126E09FED1A1AF7EE000A2F
:1016E00051EE000AFCEEE00A10EE902A03685A63FD
:1016F00026E09FED141AF7EE000A51EE000AFCEE08
:10170000E00A10EE902A03689A6319E09FED0D1A23
:10171000F7EE000A51EE000AFCEEE00A10EE902A05
:101720000368DA630CE09FED071AF7EE000A51EE4A
:10173000000AFCEEE00A10EE902A03681A6400BF6B
:1017400000BF704700401C467047704710B5FEF759
:10175000FBFE10BD00B593B0302107A8FEF77AFD5F
:10176000142102A8FEF776FD00BF00200190244856
:10177000006840F08050224908600846006800F088
:101780008050019000BF00BF00BF002001901D48A5
:10179000006840F440401B4908600846006800F4B7
:1017A0004040019000BF00BF012007900004089056
:1017B00002200D9041050E9106210F91A821109154
:1017C000022111910421129107A8FFF79DF808B199
:1017D000FEF77FFD0F20029002200390002004906E
:1017E0004FF4A05005904FF480500690052102A8B8
:1017F000FEF770FF08B1FEF76CFD13B000BD0000EE
:1018000040380240007000401448006840F4700006
:10181000124908601248006840F001001049086051
:1018200000200F49083108600D4800680D49084044
:101830000B4908600C48091D0860081F006820F467
:101840008020091F0860002005490C3108604FF016
:1018500000600249803908607047000088ED00E0B0
:1018600000380240FFFFF6FE1030002410B5026879
:10187000294B98420ED0B0F1804F0BD0274B9842A5
:1018800008D0274B984205D0264B984202D0264BD1
:10189000984203D122F070024B681A431E4B9842C3
:1018A00020D0B0F1804F1DD01C4B98421AD01C4B59
:1018B000984217D01B4B984214D01B4B984211D022
:1018C0001A4B98420ED01A4B98420BD0194B9842A3
:1018D00008D0194B984205D0184B984202D0184BAB
:1018E000984203D122F44072CB681A4322F080035D
:1018F0004C6943EA040202608B68C3620B6883622E
:10190000054B984202D0084B984201D10B69036302
:101910000123436110BD00000000014000040040AD
:1019200000080040000C004000040140004001405D
:10193000004401400048014000180040001C0040E5
:101940000020004030B501F01F05012404FA05F322
:10195000046A9C430462046A01F01F0502FA05F55B
:101960002C43046230BD000030B5056A25F0010546
:101970000562026A4368846924F0700424F0030459
:101980000D682C4322F002028D682A43104DA842B4
:1019900000D103E00F4DA84206D100BF22F008029B
:1019A000CD682A4322F00402094DA84202D0094D15
:1019B000A84207D123F4807323F400734D692B43AD
:1019C0008D692B43436084614D684563026230BD7D
:1019D000000001400004014030B5056A25F0100503
:1019E0000562026A4368846924F4E04424F4407484
:1019F0000D6844EA052422F020028D6842EA0512AF
:101A0000124DA84200D103E0114DA84207D100BFFA
:101A100022F08002CD6842EA051222F040020B4D0E
:101A2000A84202D00A4DA84209D123F4806323F4CE
:101A300000634D6943EA85038D6943EA850343608A
:101A400084614D688563026230BD00000000014082
:101A50000004014030B5056A25F480750562026A0C
:101A60004368C46924F0700424F003040D682C4317
:101A700022F400728D6842EA0522124DA84200D17C
:101A800003E0114DA84207D100BF22F40062CD68E7
:101A900042EA052222F480620A4DA84202D00A4D91
:101AA000A84209D123F4805323F400534D6943EA3B
:101AB00005138D6943EA05134360C4614D68C5632E
:101AC000026230BD000001400004014030B5056AEB
:101AD00025F480550562036A4468C26922F4E04235
:101AE00022F440720D6842EA052223F400538D6807
:101AF00043EA0533084DA84202D0084DA84204D15C
:101B000024F480444D6944EA85144460C2614D6800
:101B10000564036230BD0000000001400004014084
:101B200000BFFEE702480068C0F3022070470000D3
:101B30000CED00E010B5002804DB0A07130E054A7F
:101B4000135406E00A07140E034A00F00F031B1F8C
:101B5000D45410BD00E400E018ED00E002E008C835
:101B6000121F08C1002AFAD170477047002001E017
:101B700001C1121F002AFBD17047000010B50122DD
:101B8000D1020448FEF7D3FC012291030248FEF77C
:101B9000CEFC10BD0010024000140240FEF7E0FC35
:101BA000FFF7D8FDFFF788FBFFF712FCFFF766FC95
:101BB000FFF7BCFCFFF712FDFFF7E0FF0021314803
:101BC000FFF74CFB04212F48FFF748FB08212D4865
:101BD000FFF744FB0C212B48FFF740FB00212A486C
:101BE000FFF73CFB04212848FFF738FB0821264873
:101BF000FFF734FB0C212448FFF730FB002123487A
:101C0000FFF72CFB04212148FFF728FB08211F4880
:101C1000FFF724FB0C211D48FFF720FB00211C4887
:101C2000FFF71CFB04211A48FFF718FB082118488E
:101C3000FFF714FB0C211648FFF710FB9FED150A68
:101C400000211348FFF740FD9FED130A04211048BF
:101C5000FFF73AFD9FED110A08210D48FFF734FD0B
:101C60009FED0F0A0C210A48FFF72EFD08E04FF404
:101C700080410C48FEF752FC4FF4FA70FEF72CFB43
:101C8000F5E7000010000020500000209000002028
:101C9000D0000020CDCCCC3DCDCC4C3E9A99993E85
:101CA000CDCCCC3E0014024000000000000000003B
:101CB00001020304060708090000000001020304F2
:101CC000E01C000800000020100000005C1B000861
:101CD000F01C000810000020000500006C1B00082C
:101CE0000000000010000000010000000024F400CB
:04000005080001AD41
:00000001FF
